00COTAHIST.2015BOVESPA 20151230                                                                                                                                                                                                                      
012015010202AAPL34      010APPLE       DRN          R$  000000000296500000000029650000000002945000000000296100000000029450000000002920000000000000000002000000000000032300000000000095643500000000000000009999123100000010000000000000BRAAPLBDR004111
012015010202ABCB4       010ABC BRASIL  PN  EJS N2   R$  000000000128500000000012850000000001235000000000125400000000012550000000001255000000000125600531000000000000117100000000000146933700000000000000009999123100000010000000000000BRABCBACNPR4123
012015010296ABCB4F      020ABC BRASIL  PN  EJS N2   R$  000000000128300000000012830000000001248000000000126900000000012480000000001253000000000128600005000000000000000208000000000000264126000000000000009999123100000010000000000000BRABCBACNPR4123
012015010212ABCP11      010FII ABC IMOBCI  ER       R$  000000000097200000000009720000000000801000000000096400000000009640000000000931000000000096400009000000000000000496000000000000478149000000000000009999123100000010000000000000BRABCPCTF000231
012015010202ABEV3       010AMBEV S/A   ON  EJ       R$  000000000161400000000016560000000001577000000000160800000000016010000000001591000000000160121543000000000019110800000000030734197200000000000000009999123100000010000000000000BRABEVACNOR1106
012015010296ABEV3F      020AMBEV S/A   ON  EJ       R$  000000000159000000000016550000000001577000000000161600000000016150000000001615000000000165000215000000000000004651000000000007516524000000000000009999123100000010000000000000BRABEVACNOR1106
012015010262ABEV3T      030AMBEV S/A   ON  EJ    090R$  000000000162800000000016290000000001628000000000162800000000016290000000000000000000000000000002000000000000011300000000000018403039000000000000009999123100000010000000000000BRABEVACNOR1106
012015010278ABEVA16     070ABEVE   /EJ ON        000R$  000000000008200000000000820000000000082000000000008200000000000820000000000037000000000000000001000000000000000100000000000000008200000000000154202015011900000010000000000000BRABEVACNOR1101
012015010278ABEVA17     070ABEVE   /EJ ON        000R$  000000000001100000000000120000000000010000000000001000000000000100000000000002000000000000700004000000000000002900000000000000030700000000000169202015011900000010000000000000BRABEVACNOR1105
