00COTAHIST.2020BOVESPA 20201230                                                                                                                                                                                                                      
012020010202AALR3       010ALLIAR      ON      NM   R$  000000000182900000000019000000000001828000000000186800000000019000000000001899000000000190102443000000000000585800000000001094619600000000000000009999123100000010000000000000BRAALRACNOR6101
012020010202AAPL34      010APPLE       DRN          R$  000000001200000000000121340000000012000000000001207300000000121340000000010550000000001213400009000000000000012700000000000153338000000000000000009999123100000010000000000000BRAAPLBDR004131
012020010202ABCB4       010ABC BRASIL  PN  EJ  N2   R$  000000000200000000000020300000000001982000000000200500000000020300000000002008000000000203003979000000000000870400000000001745787800000000000000009999123100000010000000000000BRABCBACNPR4133
012020010202ABEV3       010AMBEV S/A   ON  EJ       R$  000000000188600000000019250000000001878000000000191200000000019200000000001919000000000192031581000000000016011300000000030623479100000000000000009999123100000010000000000000BRABEVACNOR1122
012020010202ADHM3       010ADVANCED-DH ON           R$  000000000025500000000002550000000000235000000000024400000000002480000000000248000000000024900307000000000000193400000000000047192700000000000000009999123100000010000000000000BRADHMACNOR9101
012020010202AFLT3       010AFLUENTE T  ON           R$  000000000111300000000011280000000001100000000000111500000000011230000000001101000000000112300024000000000000004300000000000004796200000000000000009999123100000010000000000000BRAFLTACNOR1114
012020010202AGRO3       010BRASILAGRO  ON      NM   R$  000000000191000000000019300000000001910000000000192100000000019250000000001919000000000192500211000000000000059600000000000114531800000000000000009999123100000010000000000000BRAGROACNOR7109
012020010202ALPA3       010ALPARGATAS  ON      N1   R$  000000000275800000000027640000000002680000000000271700000000026800000000002675000000000272600048000000000000009700000000000026358000000000000000009999123100000010000000000000BRALPAACNOR0228
012020010202ALPA4       010ALPARGATAS  PN      N1   R$  000000000329800000000033440000000003247000000000327400000000032580000000003258000000000327007064000000000001355800000000004439489300000000000000009999123100000010000000000000BRALPAACNPR7228
