00COTAHIST.2019BOVESPA 20191230                                                                                                                                                                                                                      
012019010202AALR3       010ALLIAR      ON      NM   R$  000000000133100000000013500000000001325000000000133300000000013250000000001320000000000132500856000000000000264200000000000352396200000000000000009999123100000010000000000000BRAALRACNOR6100
012019010202AAPL34      010APPLE       DRN          R$  000000000607100000000060710000000005989000000000604700000000060410000000005991000000000604100045000000000000016800000000000101596900000000000000009999123100000010000000000000BRAAPLBDR004127
012019010202ABBV34      010ABBVIE      DRN          R$  000000003428400000000342840000000034284000000003428400000000342840000000000000000000000000000001000000000000000300000000000010285200000000000000009999123100000010000000000000BRABBVBDR001111
012019010202ABCB4       010ABC BRASIL  PN  EJS N2   R$  000000000164700000000017200000000001635000000000167800000000017120000000001705000000000171203477000000000000571700000000000959830000000000000000009999123100000010000000000000BRABCBACNPR4131
012019010202ABEV3       010AMBEV S/A   ON  EJ       R$  000000000154000000000016300000000001540000000000159500000000016150000000001613000000000161545941000000000018692900000000029820195400000000000000009999123100000010000000000000BRABEVACNOR1121
012019010202ADHM3       010ADVANCED-DH ON           R$  000000000014900000000001500000000000149000000000014900000000001500000000000143000000000015400003000000000000001800000000000000269800000000000000009999123100000010000000000000BRADHMACNOR9101
012019010202AFLT3       010AFLUENTE T  ON           R$  000000000054800000000005480000000000540000000000054300000000005400000000000460000000000054000004000000000000000500000000000000271600000000000000009999123100000010000000000000BRAFLTACNOR1113
012019010202AGRO3       010BRASILAGRO  ON      NM   R$  000000000158000000000016000000000001541000000000158600000000015950000000001590000000000159500165000000000000030000000000000047598500000000000000009999123100000010000000000000BRAGROACNOR7108
012019010202ALPA3       010ALPARGATAS  ON      N1   R$  000000000162000000000016800000000001620000000000165100000000016800000000001680000000000176700021000000000000005500000000000009084800000000000000009999123100000010000000000000BRALPAACNOR0227
