00COTAHIST.2018BOVESPA 20181228                                                                                                                                                                                                                      
012018010202AALR3       010ALLIAR      ON      NM   R$  000000000149400000000015160000000001470000000000148400000000014890000000001475000000000148900403000000000000094500000000000140299100000000000000009999123100000010000000000000BRAALRACNOR6100
012018010296AALR3F      020ALLIAR      ON      NM   R$  000000000147900000000014930000000001479000000000148600000000014800000000001473000000000151600007000000000000000225000000000000334384000000000000009999123100000010000000000000BRAALRACNOR6100
012018010202AAPL34      010APPLE       DRN          R$  000000000568100000000056810000000005630000000000563800000000056300000000005500000000000563000004000000000000000900000000000005074700000000000000009999123100000010000000000000BRAAPLBDR004123
012018010296AAPL34F     020APPLE       DRN          R$  000000000568100000000065000000000005654000000000596300000000056540000000005459000000000620000007000000000000000061000000000000363770000000000000009999123100000010000000000000BRAAPLBDR004123
012018010210ABCB2       010ABC BRASIL  DIR PRE N2   R$  000000000041100000000004200000000000411000000000041400000000004200000000000413000000000060000006000000000000001200000000000000497700000000000000009999123100000010000000000000BRABCBD12PR6128
012018010296ABCB2F      020ABC BRASIL  DIR PRE N2   R$  000000000040100000000004200000000000401000000000041200000000004200000000000408000000000042000014000000000000000222000000000000091601000000000000009999123100000010000000000000BRABCBD12PR6128
012018010202ABCB4       010ABC BRASIL  PN  EJS N2   R$  000000000168300000000016850000000001656000000000166500000000016580000000001657000000000166002024000000000000326300000000000543316000000000000000009999123100000010000000000000BRABCBACNPR4129
012018010296ABCB4F      020ABC BRASIL  PN  EJS N2   R$  000000000167500000000016800000000001655000000000166700000000016680000000001661000000000166800047000000000000000940000000000001567461000000000000009999123100000010000000000000BRABCBACNPR4129
012018010212ABCP11      010FII ABC IMOBCI  ER       R$  000000000161000000000016190000000001595000000000160800000000016000000000001600000000000160900116000000000000014513000000000023350308000000000000009999123100000010000000000000BRABCPCTF000267
