00COTAHIST.2016BOVESPA 20161229                                                                                                                                                                                                                      
012016010402AAPL34      010APPLE       DRN          R$  000000000415000000000042200000000004150000000000421300000000042080000000003950000000000435000005000000000000012500000000000052664400000000000000009999123100000010000000000000BRAAPLBDR004115
012016010496AAPL34F     020APPLE       DRN          R$  000000000421100000000042110000000004208000000000420900000000042080000000004116000000000000000003000000000000000132000000000000555588000000000000009999123100000010000000000000BRAAPLBDR004115
012016010402ABCB4       010ABC BRASIL  PN  EJS N2   R$  000000000082000000000008280000000000766000000000080800000000008130000000000812000000000082500831000000000000148000000000000119705600000000000000009999123100000010000000000000BRABCBACNPR4125
012016010496ABCB4F      020ABC BRASIL  PN  EJS N2   R$  000000000082000000000008650000000000776000000000081800000000008140000000000814000000000085000010000000000000000300000000000000245515000000000000009999123100000010000000000000BRABCBACNPR4125
012016010412ABCP11      010FII ABC IMOBCI  ER       R$  000000000094300000000009430000000000943000000000094300000000009430000000000915000000000094300001000000000000000001000000000000000943000000000000009999123100000010000000000000BRABCPCTF000243
012016010402ABEV3       010AMBEV S/A   ON  EJ       R$  000000000177300000000017730000000001721000000000173400000000017210000000001720000000000172133912000000000013206900000000022913285600000000000000009999123100000010000000000000BRABEVACNOR1111
012016010496ABEV3F      020AMBEV S/A   ON  EJ       R$  000000000176800000000017850000000001720000000000174300000000017520000000001730000000000175200435000000000000009386000000000016360689000000000000009999123100000010000000000000BRABEVACNOR1111
012016010462ABEV3T      030AMBEV S/A   ON  EJ    016R$  000000000174300000000017440000000001743000000000174300000000017440000000000000000000000000000002000000000000003000000000000005230714000000000000009999123100000010000000000000BRABEVACNOR1111
012016010462ABEV3T      030AMBEV S/A   ON  EJ    030R$  000000000177000000000017710000000001770000000000177000000000017710000000000000000000000000000002000000000000050000000000000088521805000000000000009999123100000010000000000000BRABEVACNOR1111
